:100000000C94A1000C94D9000C94BE000C94BE007A
:100010000C94BE000C94BE000C94BE000C94BE0068
:100020000C94BE000C94BE000C94BE000C94BE0058
:100030000C94BE000C94BE000C94BE000C94BE0048
:100040000C94BE000C94BE000C94BE000C94BE0038
:100050000C94BE000C94BE000C94BE000C94BE0028
:100060000C94BE000C94BE000C94BE000C94BE0018
:100070000C94BE000C94BE000C94BE0006FF000958
:1000800000A1010901A10005091901290515002593
:10009000019505750105080906090009000900090F
:1000A0000015002501950575010501093009310983
:1000B000320938150026FF0095057508C0C00902F1
:1000C0002200010100807D090400000103040100F9
:1000D0000921010105012242000705810308000AE8
:1000E0001201100100000008C016DC050001010229
:1000F000030112035500530042004100300030005C
:100100003000300022035500530042002000480018
:100110004900440020004A006F0079007300740019
:10012000690063006B001803410074006F006D00EC
:10013000200054007200610063006500A900040300
:10014000090411241FBECFEFD0E1DEBFCDBF11E007
:10015000A0E0B1E0E6E1F7E002C005900D92A23028
:10016000B107D9F721E0A2E0B1E001C01D92A034AF
:10017000B207E1F70E9435020C9489030C94000049
:10018000A82FB92F80E090E041E050EA609530E080
:1001900009C02D9182279795879510F08427952780
:1001A000305EC8F36F5FA8F30895EADF8D939D93E7
:1001B0000895CF93CFB7CF93C3954C9BE9F74C9B52
:1001C00009C04C9B07C04C9B05C04C9B03C04C9B7B
:1001D00001C0A3C0DF93C0912301DD27C65DDE4FC0
:1001E0004C9B02C0DF91EBCF2F930F931F9309B16C
:1001F0002FEF04FB20F94F933F9319B14FEF0127E5
:1002000004FB21F93BE031C04E7F012F19B1216081
:1002100028C0102F4D7F2260000009B129C04B7FFC
:100220002460012F000019B12BC019B1477F28604D
:100230002AC04F7E09B120612CC04F7D19B12062C8
:100240002FC04F7B09B1206432C0422709B14993C6
:100250004FEF0000102714FB20F919B11471C9F1F8
:10026000297F91F2012704FB21F909B1237F89F24B
:10027000315058F1102714FB22F919B1277E79F279
:10028000012704FB23F92F7C81F209B1102714FB0D
:1002900024F92F7971F200C019B1012704FB25F967
:1002A0002F7359F200C009B1102714FB26F9223030
:1002B00040F200C019B1012704FB27F9243028F6C9
:1002C0004F77206819B10000F9CF11E01CBB00275F
:1002D00019C03B503195C31BD04011E01CBB0881B5
:1002E000033CF9F00B34E9F0209121011981110F41
:1002F0001213EDCF4A81441F093641F10D3211F03E
:10030000013E29F7009328013F914F911F910F91D2
:100310002F91DF91CCB3C0FD4FCFCF91CFBFCF9105
:10032000189520912801222379F310912601112399
:1003300069F534306AF1309326012093220110913F
:1003400023013BE0311B3093230122C000912601A1
:100350000130E4F40AE54F7049F43091010134FDB5
:1003600019C000930101CAE0D1E018C03091150115
:1003700034FD10C000931501C6E1D1E00FC02795F0
:10038000A8F45150A9F4220F0000F9CF4AE503C0A8
:1003900042ED01C0432FC4E1D0E032E01AB1146154
:1003A0005C9A1AB90BB120E414E15F93012756E07F
:1003B0000BB9279520F4515021F4220FF9CF0127D2
:1003C00056E000003B5A0BB9D0F2279528F4515063
:1003D00029F4220F0000F9CF012756E027950BB929
:1003E00020F4515021F4220FF9CF012756E0299132
:1003F00033230BB921F60B7E10912701110FC65143
:10040000D0400BB911F01093210111E01CBB006129
:100410001AB11B7E402F4B7E5F9100C000C00BB90C
:100420001AB94BB971CFFC0183E091E0909325019B
:1004300080932401808180768032A9F4818181308B
:1004400081F0823041F482E091E090932501809325
:10045000240181E008958A3031F483818093020180
:1004600002C086E0089580E008950E947C03549ABB
:1004700080E0815039F0E7EBFBE03197F1F700C005
:100480000000F7CF549878940E9473028091150170
:1004900084FFFACF66E083E091E00E945002F4CF3F
:1004A000CF93C62F2091150124FF07C0309116016C
:1004B00028E823272093160103C02AE5209315017D
:1004C000DC01E7E1F1E08C2F8E0F9D9191938E136B
:1004D000FCCF6C2F87E191E00E94D500CC5FC093E8
:1004E0001501CF910895CF93DF938091260183501A
:1004F00087FDA9C090912301209122012D3209F09E
:10050000A0C0883009F09DC0CCE0D0E0C91BD10963
:10051000C65DDE4F83EC80930A018AE5809301017A
:10052000109209018881807621F0CE010E94130289
:100530007FC09A81109213018981811106C01092A7
:10054000140123E131E082E06FC0853019F490930B
:10055000270167C0863009F04EC08B81813019F4C5
:1005600080EE90E029C0823019F48EEB90E01AC042
:10057000833041F5911108C08EE391E090932501FD
:100580008093240184E033C0913041F486E291E00D
:10059000909325018093240188E129C0923041F491
:1005A00084E091E0909325018093240182E21FC0B2
:1005B0009330E1F482EF90E0909325018093240141
:1005C00082E115C0813241F480ED90E090932501E5
:1005D0008093240189E00BC0823241F48CE790E0E3
:1005E000909325018093240182E401C080E090E48F
:1005F000909309011DC0883069F0893019F49093F7
:1006000029010FC08A3049F08B3059F48BE4809374
:10061000160107C029E231E002C023E131E081E0A8
:1006200003C023E131E080E03093250120932401D1
:100630009F81911104C09E81981708F4892F80939F
:100640000001109226018091010184FF48C0809131
:1006500000018F3F09F443C0C82F893008F0C8E07B
:100660008C1B8093000190910A0188E88927809370
:100670000A01CC2339F18091240190912501209128
:10068000090126FF0BC0ABE0B1E0FC012C2F280FC5
:1006900034913D9331962E13FBCF09C0DC01EBE082
:1006A000F1E02C2F2E0F3D9131932E13FCCF2FEF25
:1006B0002C0F30E02F5F3F4F820F931F9093250147
:1006C000809324016C2F8BE091E00E94D500CC5FD9
:1006D000CC3019F08FEF80930001C093010184E1C9
:1006E00099B1947131F48150D9F710922701109289
:1006F0002101DF91CF910895E9E6F0E080818260E9
:100700008083E89AE5E1F1E08BE481838AE58083E8
:060710000895F894FFCFEC
:02071600FF5A88
:00000001FF
