:100000000C94A5000C94DD000C94C2000C94C2006A
:100010000C94C2000C94C2000C94C2000C94C20058
:100020000C94C2000C94C2000C94C2000C94C20048
:100030000C94C2000C94C2000C94C2000C94C20038
:100040000C94C2000C94C2000C94C2000C94C20028
:100050000C94C2000C94C2000C94C2000C94C20018
:100060000C94C2000C94C2000C94C2000C94C20008
:100070000C94C2000C94C2000C94C20006FF00094C
:1000800004A101050919012903150025019503752E
:1000900001810295017505810305010901A100098E
:1000A0003009311581257F750895028120C00938F6
:1000B00095018102093C1500250175019501B122C8
:1000C0009507B101C009022200010100807D0904E9
:1000D000000001030401000921010105012249007A
:1000E0000705810308000A1201100100000008C082
:1000F00016DC050001010203011203550053004202
:100100000041003000300030003000220355005321
:10011000004200200048004900440020004A006FCF
:1001200000790073007400690063006B00180341DC
:100130000074006F006D00200054007200610063C5
:10014000006500A900040309040011241FBECFEFBD
:10015000D0E1DEBFCDBF11E0A0E0B1E0EEECF7E012
:1001600002C005900D92A230B107D9F721E0A2E0BC
:10017000B1E001C01D92AF33B207E1F70E9439022E
:100180000C94E5030C940000A82FB92F80E090E0B8
:1001900041E050EA609530E009C02D9182279795A3
:1001A000879510F084279527305EC8F36F5FA8F31A
:1001B0000895EADF8D939D930895CF93CFB7CF93A2
:1001C000C3954C9BE9F74C9B09C04C9B07C04C9BCB
:1001D00005C04C9B03C04C9B01C0A3C0DF93C091E2
:1001E0002201DD27C75DDE4F4C9B02C0DF91EBCFC4
:1001F0002F930F931F9309B12FEF04FB20F94F9317
:100200003F9319B14FEF012704FB21F93BE031C0C7
:100210004E7F012F19B1216028C0102F4D7F226021
:10022000000009B129C04B7F2460012F000019B1E3
:100230002BC019B1477F28602AC04F7E09B12061C9
:100240002CC04F7D19B120622FC04F7B09B12064B3
:1002500032C0422709B149934FEF0000102714FB29
:1002600020F919B11471C9F1297F91F2012704FB1A
:1002700021F909B1237F89F2315058F1102714FB7D
:1002800022F919B1277E79F2012704FB23F92F7C8B
:1002900081F209B1102714FB24F92F7971F200C003
:1002A00019B1012704FB25F92F7359F200C009B1D8
:1002B000102714FB26F9223040F200C019B10127A3
:1002C00004FB27F9243028F64F77206819B1000085
:1002D000F9CF11E01CBB002719C03B503195C31B5F
:1002E000D04011E01CBB0881033CF9F00B34E9F06D
:1002F000209120011981110F1213EDCF4A81441F63
:10030000093641F10D3211F0013E29F70093270122
:100310003F914F911F910F912F91DF91CCB3C0FD71
:100320004FCFCF91CFBFCF91189520912701222396
:1003300079F310912501112369F534306AF1309376
:10034000250120932101109122013BE0311B3093C4
:10035000220122C0009125010130E4F40AE54F702A
:1003600049F43091010134FD19C000930101C9E045
:10037000D1E018C03091140134FD10C00093140175
:10038000C5E1D1E00FC02795A8F45150A9F4220F80
:100390000000F9CF4AE503C042ED01C0432FC4E19C
:1003A000D0E032E01AB114615C9A1AB90BB120E4C2
:1003B00014E15F93012756E00BB9279520F45150C3
:1003C00021F4220FF9CF012756E000003B5A0BB968
:1003D000D0F2279528F4515029F4220F0000F9CFCC
:1003E000012756E027950BB920F4515021F4220F34
:1003F000F9CF012756E0299133230BB921F60B7E63
:1004000010912601110FC651D0400BB911F0109375
:10041000200111E01CBB00611AB11B7E402F4B7EF6
:100420005F9100C000C00BB91AB94BB971CFFC0184
:1004300083E091E090932401809323018081807672
:100440008032A9F48181813081F0823041F482E0F0
:1004500091E0909324018093230181E008958A30F4
:1004600031F483818093020102C083E0089580E02B
:1004700008950E947D020E94D803549A80E0815022
:1004800039F0E7EBFBE03197F1F700C00000F7CF60
:100490005498789481E0809303011092050110E054
:1004A00000E00E94CF020E9484020E94A0028F3FBF
:1004B00021F0813021F4C9EE03C0CAEE01C0C0E0D2
:1004C0000E94A502D82F801721F0813019F0C2EECA
:1004D00001C0D02F1C1303C01C2F0D2FE2CF809121
:1004E000140184FD02C0C12FF7CFC093040163E063
:1004F00083E091E00E94AC02EFCF089809980A9837
:10050000109A119A129A089580B1282F217001999A
:10051000226090910601892F8370281781F034E0C2
:10052000939FC0011124822B80930601813E11F418
:100530008FEF03C0823D19F481E080930701089595
:100540008091070110920701089580B182FB8827EE
:1005500080F991E089270895CF93C62F2091140147
:1005600024FF07C03091150128E8232720931501A7
:1005700003C02AE520931401DC01E6E1F1E08C2FB1
:100580008E0F9D9191938E13FCCF6C2F86E191E09D
:100590000E94D900CC5FC0931401CF910895CF93EE
:1005A000DF9380912501835087FDA9C0909122019E
:1005B000209121012D3209F0A0C0883009F09DC0A2
:1005C000CCE0D0E0C91BD109C75DDE4F83EC80933E
:1005D00009018AE5809301011092080188818076E3
:1005E00021F0CE010E9417027FC09A811092120161
:1005F0008981811106C01092130122E131E082E06D
:100600006FC0853019F49093260167C0863009F0D9
:100610004EC08B81813019F487EE90E029C0823082
:1006200019F485EC90E01AC0833041F5911108C0AF
:1006300085E491E0909324018093230184E033C00A
:10064000913041F48DE291E0909324018093230155
:1006500088E129C0923041F48BE091E0909324012D
:100660008093230182E21FC09330E1F489EF90E090
:10067000909324018093230182E115C0813241F4DB
:1006800087ED90E0909324018093230189E00BC0D3
:10069000823241F48CE790E090932401809323010F
:1006A00089E401C080E090E4909308011DC0883087
:1006B00069F0893019F4909328010FC08A3049F00D
:1006C0008B3059F48BE48093150107C028E231E0A8
:1006D00002C022E131E081E003C022E131E080E0AC
:1006E00030932401209323019F81911104C09E81A6
:1006F000981708F4892F80930001109225018091AA
:10070000010184FF48C0809100018F3F09F443C07C
:10071000C82F893008F0C8E08C1B809300019091AD
:10072000090188E8892780930901CC2339F1809158
:100730002301909124012091080126FF0BC0AAE01B
:10074000B1E0FC012C2F280F34913D9331962E13EC
:10075000FBCF09C0DC01EAE0F1E02C2F2E0F3D9128
:1007600031932E13FCCF2FEF2C0F30E02F5F3F4F34
:10077000820F931F90932401809323016C2F8AE0B2
:1007800091E00E94D900CC5FCC3019F08FEF8093BC
:100790000001C093010184E199B1947131F4815059
:1007A000D9F71092260110922001DF91CF91089580
:1007B000E9E6F0E0808182608083E89AE4E1F1E09C
:0E07C0008BE481838AE580830895F894FFCF4F
:0207CE00FF5AD0
:00000001FF
