S01800005553422D4849442D4A6F79737469636B2E73726563A3
S11300000C949F000C94D7000C94BC000C94BC007E
S11300100C9431020C94BC000C94BC000C94BC00F5
S11300200C94BC000C94BC000C94BC000C94BC005C
S11300300C94BC000C94BC000C94BC000C94BC004C
S11300400C94BC000C94BC000C94BC000C94BC003C
S11300500C94BC000C94BC000C94BC000C94BC002C
S11300600C94BC000C94BC000C94BC000C94BC001C
S11300700C94BC000C94BC000C94BC000501090455
S1130080A1010901A100850105091901290815002B
S113009025019508750181020938150026FF0375AD
S11300A010950181028502093009310932150026B3
S11300B0FF03751095038102C0C0090222000101EB
S11300C0008032090400000103000100092101013C
S11300D00501223E00070581030800641201100196
S11300E000000008C016DC05000101020301120330
S11300F05500530042004100300030003000300011
S113010022035500530042002000480049004400E7
S113011020004A006F0079007300740069006300D6
S11301206B001803410074006F006D002000540040
S11301307200610063006500A9000403090411242E
S11301401FBECFEFD0E1DEBFCDBF11E0A0E0B1E034
S1130150ECE6F8E002C005900D92A231B107D9F7A0
S113016021E0A2E1B1E001C01D92A935B207E1F797
S11301700E9489020C9434040C940000A82FB92F17
S113018080E090E041E050EA609530E009C02D91B4
S113019082279795879510F084279527305EC8F3BA
S11301A06F5FA8F30895EADF8D939D930895CF932D
S11301B0CFB7CF93C3954C9BE9F74C9B09C04C9B9D
S11301C007C04C9B05C04C9B03C04C9B01C0A3C003
S11301D0DF93C0913C01DD27CD5BDE4F4C9B02C019
S11301E0DF91EBCF2F930F931F9309B12FEF04FBF4
S11301F020F94F933F9319B14FEF012704FB21F9E5
S11302003BE031C04E7F012F19B1216028C0102F6F
S11302104D7F2260000009B129C04B7F2460012F6B
S1130220000019B12BC019B1477F28602AC04F7E46
S113023009B120612CC04F7D19B120622FC04F7BC2
S113024009B1206432C0422709B149934FEF00003D
S1130250102714FB20F919B11471C9F1297F91F207
S1130260012704FB21F909B1237F89F2315058F1A8
S1130270102714FB22F919B1277E79F2012704FB18
S113028023F92F7C81F209B1102714FB24F92F796B
S113029071F200C019B1012704FB25F92F7359F23B
S11302A000C009B1102714FB26F9223040F200C027
S11302B019B1012704FB27F9243028F64F77206869
S11302C019B10000F9CF11E01CBB002719C03B5045
S11302D03195C31BD04011E01CBB0881033CF9F0ED
S11302E00B34E9F020913A011981110F1213EDCF6B
S11302F04A81441F093641F10D3211F0013E29F7BC
S1130300009341013F914F911F910F912F91DF91E4
S1130310CCB3C0FD4FCFCF91CFBFCF9118952091D3
S11303204101222379F310913F01112369F53430FF
S11303306AF130933F0120933B0110913C013BE073
S1130340311B30933C0122C000913F010130E4F4A1
S11303500AE54F7049F43091010134FD19C000934E
S11303600101C3E2D1E018C030912E0134FD10C068
S113037000932E01CFE2D1E00FC02795A8F451508D
S1130380A9F4220F0000F9CF4AE503C042ED01C0F1
S1130390432FC4E1D0E032E01AB114615C9A1AB977
S11303A00BB120E414E15F93012756E00BB92795C4
S11303B020F4515021F4220FF9CF012756E0000018
S11303C03B5A0BB9D0F2279528F4515029F4220F47
S11303D00000F9CF012756E027950BB920F45150BE
S11303E021F4220FF9CF012756E0299133230BB9C9
S11303F021F60B7E10914001110FC651D0400BB96C
S113040011F010933A0111E01CBB00611AB11B7E7C
S1130410402F4B7E5F9100C000C00BB91AB94BB995
S113042071CFECE7F0E0808180648083EAE7F0E05C
S1130430808187688083089590917C008F70907F7D
S1130440892B80937C0080917A00806480937A0069
S113045080917A0086FDFCCF80917800909179009C
S113046008951F920F920FB60F9211242F938F931A
S11304709F93EF93FF93E09112018E2F880F880FC3
S113048080931201E0B1E370E82BE0931201EF7066
S1130490F0E0EE5FFE4F8081809321018091210185
S11304A0882361F02091210180911F019091200106
S11304B0820F911D9093200180931F01FF91EF9172
S11304C09F918F912F910F900FBE0F901F901895B1
S11304D0FC01808180768032D1F48181813041F4C5
S11304E08BE191E090933E0180933D0184E0089577
S11304F0823041F483E191E090933E0180933D0189
S113050081E008958A3019F483818093130180E097
S113051008959EE088E10FB6F894A8958093600052
S11305200FBE909360000E942704549A80E081508B
S113053041F0A895E7EBFBE03197F1F700C000002C
S1130540F6CF5498789481E080931B0180931C012A
S113055082E191E290931E0180931D0182E08093D9
S113056014010E9411020E94F2020E94F702789480
S1130570A8950E94250380911F01909120019370FA
S113058090931E0180931D0180912E0184FD03C070
S11305900E942503F9CF64E08BE191E00E940203FD
S11305A083E00E941C02909316018093150184E05D
S11305B00E941C02909318018093170185E00E9409
S11305C01C0290931A018093190180912E0184FDDD
S11305D003C00E942503F9CF67E084E191E00E9403
S11305E00203C6CF109A119A089A099A0895EBE665
S11305F0F0E0808183608083E8E6F0E080818160C0
S113060080830895CF93C62F20912E0124FF07C025
S113061030912F0128E8232720932F0103C02AE5D6
S113062020932E01DC01E0E3F1E08C2F8E0F9D91ED
S113063091938E13FCCF6C2F80E391E00E94D30042
S1130640CC5FC0932E01CF910895CF93DF93809117
S11306503F01835087FDA9C090913C0120913B014B
S11306602D3209F0A0C0883009F09DC0CCE0D0E064
S1130670C91BD109CD5BDE4F83EC809323018AE54E
S113068080930101109222018881807621F0CE01AD
S11306900E9468027FC09A8110922C018981811185
S11306A006C010922D012CE231E082E06FC085304B
S11306B019F49093400167C0863009F04EC08B81D5
S11306C0813019F48CED90E029C0823019F48AEB62
S11306D090E01AC0833041F5911108C08AE391E09B
S11306E090933E0180933D0184E033C0913041F406
S11306F082E291E090933E0180933D0188E129C01C
S1130700923041F480E091E090933E0180933D016A
S113071082E21FC09330E1F48EEE90E090933E01AC
S113072080933D0182E115C0813241F48CEC90E06C
S113073090933E0180933D0189E00BC0823241F4E5
S11307408CE790E090933E0180933D018EE301C0DD
S113075080E090E4909322011DC0883069F08930D4
S113076019F4909342010FC08A3049F08B3059F448
S11307708BE480932F0107C022E431E002C02CE215
S113078031E081E003C02CE231E080E030933E01AF
S113079020933D019F81911104C09E81981708F414
S11307A0892F8093000110923F018091010184FF01
S11307B041C0809100018F3F09F43CC0C82F8930AB
S11307C008F0C8E08C1B809300019091230188E815
S11307D0892780932301CC2301F180913D019091DD
S11307E03E01309122012C2F280FA4E2B1E0FC013C
S11307F036FF06C034913D9331962E13FBCF04C0CF
S113080031913D932E13FCCF01962FEF2C0F820FC5
S1130810911D90933E0180933D016C2F84E291E001
S11308200E94D300CC5FCC3019F08FEF809300018D
S1130830C093010184E199B1947131F48150D9F7E5
S11308401092400110923A01DF91CF910895E9E6A8
S1130850F0E0808182608083E89AEEE2F1E08BE44C
S10F086081838AE580830895F894FFCF1B
S113086CFF5A00FF0100010000FFFF00000100011E
S105087CFF0077
S9030000FC
