S01800005553422D4849442D4A6F79737469636B2E73726563A3
S11300000C94B3000C94EB000C94D0000C94D0002E
S11300100C94A6020C94D0000C946B020C94D000A7
S11300200C94D0000C94D0000C94D0000C94D0000C
S11300300C94D0000C94D0000C94D0000C94D000FC
S11300400C9445020C94D0000C94D0000C94D00075
S11300500C94D0000C94D0000C94D0000C94D000DC
S11300600C94D0000C94D0000C94D0000C94D000CC
S11300700C94D0000C94D0000C94D0000501090419
S1130080A101A1008501050919012908150025010F
S113009075019508810205010938150026FF0375CD
S11300A010950181028502050109300931093215D3
S11300B00026FF03751095038102850305081901C5
S11300C02908150025017501950881020508190103
S11300D02908150027FFFF0000751095018102C053
S11300E0C00902220001010080320904000001035A
S11300F000010009210101050122650007058103B2
S11301000800641201100100000008C016DC05009C
S11301100101020301120355005300420041003063
S1130120003000300030002203550053004200200C
S11301300048004900440020004A006F0079007321
S1130140007400690063006B001803410074006FC1
S1130150006D00200054007200610063006500A976
S113016000040309040011241FBECFEFD0E1DEBF59
S1130170CDBF11E0A0E0B1E0EEE8F9E002C00590E7
S11301800D92A231B107D9F721E0A2E1B1E001C09B
S11301901D92A236B207E1F70E9403030C94C50432
S11301A00C940000A82FB92F80E090E041E050EAC1
S11301B0609530E009C02D9182279795879510F0BE
S11301C084279527305EC8F36F5FA8F30895EADFAC
S11301D08D939D930895CF93CFB7CF93C3954C9BA5
S11301E0E9F74C9B09C04C9B07C04C9B05C04C9B3A
S11301F003C04C9B01C0A3C0DF93C0914501DD2720
S1130200C45BDE4F4C9B02C0DF91EBCF2F930F9367
S11302101F9309B12FEF04FB20F94F933F9319B1BA
S11302204FEF012704FB21F93BE031C04E7F012F42
S113023019B1216028C0102F4D7F2260000009B140
S113024029C04B7F2460012F000019B12BC019B1C4
S1130250477F28602AC04F7E09B120612CC04F7DA2
S113026019B120622FC04F7B09B1206432C04227EC
S113027009B149934FEF0000102714FB20F919B17D
S11302801471C9F1297F91F2012704FB21F909B105
S1130290237F89F2315058F1102714FB22F919B148
S11302A0277E79F2012704FB23F92F7C81F209B11F
S11302B0102714FB24F92F7971F200C019B101271A
S11302C004FB25F92F7359F200C009B1102714FB60
S11302D026F9223040F200C019B1012704FB27F9A6
S11302E0243028F64F77206819B10000F9CF11E0C7
S11302F01CBB002719C03B503195C31BD04011E0F3
S11303001CBB0881033CF9F00B34E9F02091430154
S11303101981110F1213EDCF4A81441F093641F19F
S11303200D3211F0013E29F700934A013F914F919C
S11303301F910F912F91DF91CCB3C0FD4FCFCF917F
S1130340CFBFCF91189520914A01222379F31091C0
S11303504801112369F534306AF130934801209340
S11303604401109145013BE0311B3093450122C00B
S1130370009148010130E4F40AE54F7049F43091EA
S1130380010134FD19C000930101CCE2D1E018C091
S11303903091370134FD10C000933701C8E3D1E038
S11303A00FC02795A8F45150A9F4220F0000F9CFEB
S11303B04AE503C042ED01C0432FC4E1D0E032E07E
S11303C01AB114615C9A1AB90BB120E414E15F9379
S11303D0012756E00BB9279520F4515021F4220F40
S11303E0F9CF012756E000003B5A0BB9D0F227950C
S11303F028F4515029F4220F0000F9CF012756E0C8
S113040027950BB920F4515021F4220FF9CF01277D
S113041056E0299133230BB921F60B7E1091490143
S1130420110FC651D0400BB911F01093430111E0E4
S11304301CBB00611AB11B7E402F4B7E5F9100C034
S113044000C00BB91AB94BB971CFECE7F0E0808169
S113045080648083EAE7F0E0808187688083089580
S113046090917C008F70907F892B80937C00809189
S11304707A00806480937A0080917A0086FDFCCFB4
S1130480809178009091790008951F920F920FB691
S11304900F9211248F939F9316BC199914C08091C5
S11304A02A0190912B0197FF02C0289A01C0289835
S11304B080912A0190912B01880F991F90932B0111
S11304C080932A0101C02A9A9F918F910F900FBEA9
S11304D00F901F9018951F920F920FB60F92112430
S11304E02F938F939F9386B15B9A2091180191E08B
S11304F092279093180180FF05C05D9A22E092270D
S11305009093180181FF07C05E9A2091180194E02E
S1130510922790931801982F9370933039F45F9A2F
S11305202091180198E092279093180182FF06C049
S11305309091180180E18927809318019F918F91F0
S11305402F910F900FBE0F901F9018951F920F922E
S11305500FB60F9211248F939F93EF93FF93E09123
S113056012018E2F880F880F80931201E0B1E3707F
S1130570E82BE0931201EF70F0E0EE5FFE4F808114
S113058080931501809115018F3F31F480911301FF
S113059090911401019609C080911501813049F4AC
S11305A08091130190911401019790931401809309
S11305B01301FF91EF919F918F910F900FBE0F90B8
S11305C01F901895FC01808180768032D1F481815E
S11305D0813041F482E291E0909347018093460197
S11305E084E00895823041F486E191E090934701DC
S11305F08093460181E008958A3019F483818093C1
S1130600160180E008959EE088E10FB6F894A8955D
S1130610809360000FBE909360000E94B804549AC7
S113062080E0815041F0A895E7EBFBE03197F1F7CA
S113063000C00000F6CF5498789481E080932201A2
S11306408093230182E191E2909325018093240118
S113065082E080931B0183E0809317010E942502AE
S11306600E9483030E9488037894CFEF01E310E390
S1130670A8950E94B6038091130190911401909360
S11306802501809324018091370184FD03C00E94D9
S1130690B603F9CF64E082E291E00E94930383E021
S11306A00E94300290931D0180931C0184E00E94FB
S11306B0300290931F0180931E0185E00E94300256
S11306C090932101809320018091370184FD03C020
S11306D00E94B603F9CF67E08BE191E00E94930397
S11306E0C093180110931A010093190180913701E6
S11306F084FD03C00E94B603F9CF64E087E191E072
S11307000E949303B5CF109A119A089A099A0895F2
S1130710EBE6F0E0808183608083E8E6F0E08081AE
S1130720816080830895CF93C62F2091370124FFE1
S113073007C03091380128E823272093380103C0EB
S11307402AE520933701DC01E9E3F1E08C2F8E0FD9
S11307509D9191938E13FCCF6C2F89E391E00E94BD
S1130760E700CC5FC0933701CF910895CF93DF9317
S113077080914801835087FDA9C090914501209143
S113078044012D3209F0A0C0883009F09DC0CCE0AE
S1130790D0E0C91BD109C45BDE4F83EC80932C01EC
S11307A08AE580930101109226018881807621F0E8
S11307B0CE010E94E2027FC09A81109235018981A4
S11307C0811106C01092360125E331E082E06FC04A
S11307D0853019F49093490167C0863009F04EC002
S11307E08B81813019F483E091E029C0823019F4BF
S11307F081EE90E01AC0833041F5911108C081E682
S113080091E0909347018093460184E033C0913096
S113081041F489E491E0909347018093460188E193
S113082029C0923041F487E291E09093470180938C
S1130830460182E21FC09330E1F485E191E0909398
S113084047018093460182E115C0813241F483EF70
S113085090E0909347018093460189E00BC0823277
S113086041F48CE790E0909347018093460185E63C
S113087001C080E090E4909326011DC0883069F0A7
S1130880893019F490934B010FC08A3049F08B30B2
S113089059F48BE48093380107C02BE431E002C0A3
S11308A025E331E081E003C025E331E080E03093CB
S11308B04701209346019F81911104C09E8198179E
S11308C008F4892F8093000110924801809101015E
S11308D084FF41C0809100018F3F09F43CC0C82FC0
S11308E0893008F0C8E08C1B8093000190912C01A2
S11308F088E8892780932C01CC2301F1809146015B
S113090090914701309126012C2F280FADE2B1E0E0
S1130910FC0136FF06C034913D9331962E13FBCF74
S113092004C031913D932E13FCCF01962FEF2C0F71
S1130930820F911D90934701809346016C2F8DE2A5
S113094091E00E94E700CC5FCC3019F08FEF8093E8
S11309500001C093010184E199B1947131F4815093
S1130960D9F71092490110924301DF91CF91089574
S1130970E9E6F0E0808182608083E89AE7E3F1E0D1
S11109808BE481838AE580830895F894FFCF89
S113098EFF5A00FF0100010000FFFF0000010001FB
S105099EFF0054
S9030000FC
