:100000000C94A1000C94D9000C94BE000C94BE007A
:100010000C94BE000C94BE000C94BE000C94BE0068
:100020000C94BE000C94BE000C94BE000C94BE0058
:100030000C94BE000C94BE000C94BE000C94BE0048
:100040000C94BE000C94BE000C94BE000C94BE0038
:100050000C94BE000C94BE000C94BE000C94BE0028
:100060000C94BE000C94BE000C94BE000C94BE0018
:100070000C94BE000C94BE000C94BE0006FF000958
:1000800004A1010901A1000509190129051500258F
:10009000019505750105080906090009000900090F
:1000A0000015002501950575010501093009310983
:1000B000320938150026FF0095057508C0C00902F1
:1000C0002200010100807D090400000103040100F9
:1000D0000921010105012242000705810308000AE8
:1000E0001201100100000008C016DC050001010229
:1000F000030112035500530042004100300030005C
:100100003000300022035500530042002000480018
:100110004900440020004A006F0079007300740019
:10012000690063006B001803410074006F006D00EC
:10013000200054007200610063006500A900040300
:10014000090411241FBECFEFD0E1DEBFCDBF11E007
:10015000A0E0B1E0E6ECF7E002C005900D92A2301D
:10016000B107D9F721E0A2E0B1E001C01D92AF33A1
:10017000B207E1F70E9435020C94E1030C940000F1
:10018000A82FB92F80E090E041E050EA609530E080
:1001900009C02D9182279795879510F08427952780
:1001A000305EC8F36F5FA8F30895EADF8D939D93E7
:1001B0000895CF93CFB7CF93C3954C9BE9F74C9B52
:1001C00009C04C9B07C04C9B05C04C9B03C04C9B7B
:1001D00001C0A3C0DF93C0912201DD27C75DDE4FC0
:1001E0004C9B02C0DF91EBCF2F930F931F9309B16C
:1001F0002FEF04FB20F94F933F9319B14FEF0127E5
:1002000004FB21F93BE031C04E7F012F19B1216081
:1002100028C0102F4D7F2260000009B129C04B7FFC
:100220002460012F000019B12BC019B1477F28604D
:100230002AC04F7E09B120612CC04F7D19B12062C8
:100240002FC04F7B09B1206432C0422709B14993C6
:100250004FEF0000102714FB20F919B11471C9F1F8
:10026000297F91F2012704FB21F909B1237F89F24B
:10027000315058F1102714FB22F919B1277E79F279
:10028000012704FB23F92F7C81F209B1102714FB0D
:1002900024F92F7971F200C019B1012704FB25F967
:1002A0002F7359F200C009B1102714FB26F9223030
:1002B00040F200C019B1012704FB27F9243028F6C9
:1002C0004F77206819B10000F9CF11E01CBB00275F
:1002D00019C03B503195C31BD04011E01CBB0881B5
:1002E000033CF9F00B34E9F0209120011981110F42
:1002F0001213EDCF4A81441F093641F10D3211F03E
:10030000013E29F7009327013F914F911F910F91D3
:100310002F91DF91CCB3C0FD4FCFCF91CFBFCF9105
:10032000189520912701222379F31091250111239B
:1003300069F534306AF13093250120932101109141
:1003400022013BE0311B3093220122C000912501A4
:100350000130E4F40AE54F7049F43091010134FDB5
:1003600019C000930101C9E0D1E018C03091140117
:1003700034FD10C000931401C5E1D1E00FC02795F2
:10038000A8F45150A9F4220F0000F9CF4AE503C0A8
:1003900042ED01C0432FC4E1D0E032E01AB1146154
:1003A0005C9A1AB90BB120E414E15F93012756E07F
:1003B0000BB9279520F4515021F4220FF9CF0127D2
:1003C00056E000003B5A0BB9D0F2279528F4515063
:1003D00029F4220F0000F9CF012756E027950BB929
:1003E00020F4515021F4220FF9CF012756E0299132
:1003F00033230BB921F60B7E10912601110FC65144
:10040000D0400BB911F01093200111E01CBB00612A
:100410001AB11B7E402F4B7E5F9100C000C00BB90C
:100420001AB94BB971CFFC0183E091E0909324019C
:1004300080932301808180768032A9F4818181308C
:1004400081F0823041F482E091E090932401809326
:10045000230181E008958A3031F483818093020181
:1004600002C083E0089580E008950E9479020E940E
:10047000D403549A80E0815039F0E7EBFBE03197E8
:10048000F1F700C00000F7CF5498789481E0809392
:1004900003011092050110E000E00E94CB020E94CF
:1004A00080020E949C028F3F21F0813021F4C9EE2E
:1004B00003C0CAEE01C0C0E00E94A102D82F80177D
:1004C00021F0813019F0C2EE01C0D02F1C1303C0FF
:1004D0001C2F0D2FE2CF8091140184FD02C0C12F8B
:1004E000F7CFC093040163E083E091E00E94A8028B
:1004F000EFCF089809980A98109A119A129A0895BD
:1005000080B1282F21700199226090910601892FD6
:100510008370281781F034E0939FC0011124822B4F
:1005200080930601813E11F48FEF03C0823D19F4E0
:1005300081E08093070108958091070110920701DF
:10054000089580B182FB882780F991E0892708957A
:10055000CF93C62F2091140124FF07C030911501BD
:1005600028E823272093150103C02AE520931401CE
:10057000DC01E6E1F1E08C2F8E0F9D9191938E13BB
:10058000FCCF6C2F86E191E00E94D500CC5FC09338
:100590001401CF910895CF93DF938091250183506B
:1005A00087FDA9C090912201209121012D3209F0EF
:1005B000A0C0883009F09DC0CCE0D0E0C91BD109B3
:1005C000C75DDE4F83EC809309018AE580930101CA
:1005D000109208018881807621F0CE010E941302DA
:1005E0007FC09A81109212018981811106C01092F8
:1005F000130122E131E082E06FC0853019F490935D
:10060000260167C0863009F04EC08B81813019F415
:1006100080EE90E029C0823019F48EEB90E01AC091
:10062000833041F5911108C08EE391E0909324014D
:100630008093230184E033C0913041F486E291E05D
:10064000909324018093230188E129C0923041F4E2
:1006500084E091E0909324018093230182E21FC003
:100660009330E1F482EF90E0909324018093230192
:1006700082E115C0813241F480ED90E09093240135
:100680008093230189E00BC0823241F48CE790E033
:10069000909324018093230182E401C080E090E4E0
:1006A000909308011DC0883069F0893019F4909347
:1006B00028010FC08A3049F08B3059F48BE48093C5
:1006C000150107C028E231E002C022E131E081E0FB
:1006D00003C022E131E080E0309324012093230124
:1006E0009F81911104C09E81981708F4892F8093EF
:1006F0000001109225018091010184FF48C0809182
:1007000000018F3F09F443C0C82F893008F0C8E0CA
:100710008C1B809300019091090188E889278093C0
:100720000901CC2339F1809123019091240120917A
:10073000080126FF0BC0AAE0B1E0FC012C2F280F16
:1007400034913D9331962E13FBCF09C0DC01EAE0D2
:10075000F1E02C2F2E0F3D9131932E13FCCF2FEF74
:100760002C0F30E02F5F3F4F820F931F9093240197
:10077000809323016C2F8AE091E00E94D500CC5F2A
:10078000CC3019F08FEF80930001C093010184E118
:1007900099B1947131F48150D9F7109226011092D9
:1007A0002001DF91CF910895E9E6F0E08081826039
:1007B0008083E89AE4E1F1E08BE481838AE5808339
:0607C0000895F894FFCF3C
:0207C600FF5AD8
:00000001FF
