:100000000C94C5000C94FD000C94E2000C94E200EA
:100010000C94E2020C94E2000C94A7020C94E2000F
:100020000C94E2000C94E2000C94E2000C94E200C8
:100030000C94E2000C94E2000C94E2000C94E200B8
:100040000C9457020C94E2000C94E2000C94E20031
:100050000C94E2000C94E2000C94E2000C94E20098
:100060000C94E2000C94E2000C94E2000C94E20088
:100070000C94E2000C94E2000C94E20005010904E7
:10008000A101A10085010509190129081500250113
:1000900075019508810205010938150026FF0375D1
:1000A000109501810205081901290815002501751F
:1000B0000195088102050819012910150027FFFF85
:1000C0000000751095018102850205010930093192
:1000D0000932150026FF037510950381028503057B
:1000E000081901290375089501150026FF009102E2
:1000F00005081901290A150027FFFF000075109552
:10010000019102C0C00902220001010080320904ED
:1001100000000103000100092101010501228900FD
:10012000070581030800641201100100000008C0E7
:1001300016DC0500010102030112035500530042C1
:1001400000410030003000300030002203550053E1
:10015000004200200048004900440020004A006F8F
:1001600000790073007400690063006B001803419C
:100170000074006F006D0020005400720061006385
:10018000006500A900040309040011241FBECFEF7D
:10019000D0E1DEBFCDBF11E0A0E0B1E0EEE4FAE0D7
:1001A00002C005900D92A431B107D9F721E0A4E176
:1001B000B1E001C01D92A537B207E1F70E944C03E0
:1001C0000C9425050C940000A82FB92F80E090E036
:1001D00041E050EA609530E009C02D918227979563
:1001E000879510F084279527305EC8F36F5FA8F3DA
:1001F0000895EADF8D939D930895CF93CFB7CF9362
:10020000C3954C9BE9F74C9B09C04C9B07C04C9B8A
:1002100005C04C9B03C04C9B01C0A3C0DF93C091A1
:100220005801DD27C15ADE4F4C9B02C0DF91EBCF56
:100230002F930F931F9309B12FEF04FB20F94F93D6
:100240003F9319B14FEF012704FB21F93BE031C087
:100250004E7F012F19B1216028C0102F4D7F2260E1
:10026000000009B129C04B7F2460012F000019B1A3
:100270002BC019B1477F28602AC04F7E09B1206189
:100280002CC04F7D19B120622FC04F7B09B1206473
:1002900032C0422709B149934FEF0000102714FBE9
:1002A00020F919B11471C9F1297F91F2012704FBDA
:1002B00021F909B1237F89F2315058F1102714FB3D
:1002C00022F919B1277E79F2012704FB23F92F7C4B
:1002D00081F209B1102714FB24F92F7971F200C0C3
:1002E00019B1012704FB25F92F7359F200C009B198
:1002F000102714FB26F9223040F200C019B1012763
:1003000004FB27F9243028F64F77206819B1000044
:10031000F9CF11E01CBB002719C03B503195C31B1E
:10032000D04011E01CBB0881033CF9F00B34E9F02C
:10033000209156011981110F1213EDCF4A81441FEC
:10034000093641F10D3211F0013E29F700935D01AC
:100350003F914F911F910F912F91DF91CCB3C0FD31
:100360004FCFCF91CFBFCF91189520915D01222320
:1003700079F310915B01112369F534306AF1309300
:100380005B0120935701109158013BE0311B3093E2
:10039000580122C000915B010130E4F40AE54F707E
:1003A00049F43091020134FD19C000930201CFE3FA
:1003B000D1E018C030914A0134FD10C000934A01C9
:1003C000CBE4D1E00FC02795A8F45150A9F4220F37
:1003D0000000F9CF4AE503C042ED01C0432FC4E15C
:1003E000D0E032E01AB114615C9A1AB90BB120E482
:1003F00014E15F93012756E00BB9279520F4515083
:1004000021F4220FF9CF012756E000003B5A0BB927
:10041000D0F2279528F4515029F4220F0000F9CF8B
:10042000012756E027950BB920F4515021F4220FF3
:10043000F9CF012756E0299133230BB921F60B7E22
:1004400010915C01110FC651D0400BB911F01093FF
:10045000560111E01CBB00611AB11B7E402F4B7E80
:100460005F9100C000C00BB91AB94BB971CFECE76E
:10047000F0E0808180648083EAE7F0E08081876833
:100480008083089590917C008F70907F892B80935A
:100490007C0080917A00806480937A0080917A0059
:1004A00086FDFCCF809178009091790008951F928D
:1004B0000F920FB60F9211248F939F9316BC8091C9
:1004C000250191EE980F923010F42B9A34C081528E
:1004D00095B1823070F488E0892785B980913B011D
:1004E00090913C0190933E0180933D011092250133
:1004F00027C088E0892785B9809100018823B9F059
:10050000299880913D0190913E0197FF02C0289A61
:1005100001C0289880913D0190913E01880F991F5C
:1005200090933E0180933D011092000104C0299AEE
:1005300081E080930001809125018F5F80932501E8
:100540009F918F910F900FBE0F901F9018951F9243
:100550000F920FB60F9211242F938F939F9386B112
:100560005B9A2091340191E092279093340180FFAF
:1005700005C05D9A22E092279093340181FF07C065
:100580005E9A2091340194E0922790933401982F41
:100590009370933039F45F9A2091340198E0922758
:1005A0009093340182FF06C09091340180E1892745
:1005B000809334019F918F912F910F900FBE0F90D8
:1005C0001F9018951F920F920FB60F9211248F93C0
:1005D0009F93EF93FF93E09114018E2F880F880F64
:1005E00080931401E0B1E370E82BE0931401EF7005
:1005F000F0E0ED5FFE4F808180932801809128011B
:100600008F3F31F48091260190912701019609C016
:1006100080912801813049F4809126019091270131
:1006200001979093270180932601FF91EF919F916D
:100630008F910F900FBE0F901F90189545E151E0DC
:10064000FA012E2F241B261728F4DC012D91CD0151
:100650002193F7CF80911601809334018091180186
:1006600090E0982F882720911701820F911D909379
:1006700036018093350181E00895FC0190819076E8
:10068000903241F49181977F81E0913009F080E0D0
:100690008195089580E008959EE088E10FB6F89472
:1006A000A895809360000FBE909360000E9418058B
:1006B000549A80E0815041F0A895E7EBFBE0319738
:1006C000F1F700C00000F6CF5498789481E0809351
:1006D00030018093310182E191E290933301809364
:1006E000320182E0809329018FEF8093340181E30E
:1006F00090E390933601809335010E9437020E9467
:10070000C5030E94CA0380913B0190913C019093E4
:100710003E0180933D017894A8950E94F803809152
:1007200026019091270190933301809332018091AB
:100730004A0184FD03C00E94F803F9CF67E080E31B
:1007400091E00E94D50383E00E94420290932B0126
:1007500080932A0184E00E94420290932D018093AD
:100760002C0185E00E94420290932F0180932E017C
:1007700080914A0184FD03C00E94F803F9CF67E02D
:1007800089E291E00E94D503C7CF109A119A089A86
:10079000099A0895EBE6F0E0808183608083E8E6C3
:1007A000F0E08081816080830895CF93C62F2091EF
:1007B0004A0124FF07C030914B0128E823272093EA
:1007C0004B0103C02AE520934A01DC01ECE4F1E08F
:1007D0008C2F8E0F9D9191938E13FCCF6C2F8CE4F8
:1007E00091E00E94F900CC5FC0934A01CF91089537
:1007F000CF93DF9360915B01635067FDC6C080912A
:100800005801CCE0D0E0C81BD109C15ADE4F80911D
:1008100057018D3209F0A7C0683009F0B4C083ECED
:1008200080933F018AE5809302011092370188810D
:10083000807641F0CE010E943D03982F8F3F09F44E
:1008400081C087C09A81109248018981811106C0B8
:100850001092490128E431E092E06FC0853019F42C
:1008600090935C0167C0863009F04EC08B81813067
:1008700019F487E291E029C0823019F485E091E013
:100880001AC0833041F5911108C085E891E090933A
:100890005A018093590194E033C0913041F48DE6C0
:1008A00091E090935A018093590198E129C09230C8
:1008B00041F48BE491E090935A018093590192E2C4
:1008C0001FC09330E1F489E391E090935A01809343
:1008D000590192E115C0813241F487E191E0909392
:1008E0005A018093590199E00BC0823241F48CE7A0
:1008F00090E090935A018093590199E801C090E0EB
:1009000080E48093370125C0883069F0893019F47C
:1009100090935E010FC08A3049F08B3059F48BE41C
:1009200080934B0107C02EE531E002C028E431E09E
:1009300091E003C028E431E090E030935A01209325
:10094000590107C0888187FD9E8180E88093370127
:1009500007C08F81811104C08E81891708F4982FF8
:100960009093010110C08091370187FF0CC0CE0128
:100970000E941E038F3F21F48EE18093020103C089
:1009800081111092010110925B018091020184FF9C
:1009900042C0809101018F3F09F43DC0C82F8930CA
:1009A00008F0C8E08C1B8093010190913F0188E81A
:1009B000892780933F01CC2301F1809159019091C7
:1009C0005A01309137012C2F280FA0E4B1E0FC012F
:1009D00036FF06C034913D9331962E13FBCF04C0F1
:1009E00031913D932E13FCCF01962FEF2C0F820FE8
:1009F000911D90935A01809359016C2F80E491E0EE
:100A00000E94F90064E06C0F6C3019F08FEF809356
:100A100001016093020184E199B1947131F4815034
:100A2000D9F710925C0110925601DF91CF91089591
:100A3000E9E6F0E0808182608083E89AEAE4F1E010
:0E0A40008BE481838AE580830895F894FFCFCC
:100A4E0001FF5A00FF0100010000FFFF000001003E
:040A5E0001FF000094
:00000001FF
